{
  "_format": "hh-sol-artifact-1",
  "contractName": "EtherStaking",
  "sourceName": "contracts/EtherStaking.sol",
  "abi": [
    {
      "inputs": [],
      "stateMutability": "nonpayable",
      "type": "constructor"
    },
    {
      "anonymous": false,
      "inputs": [
        {
          "indexed": true,
          "internalType": "uint256",
          "name": "amount",
          "type": "uint256"
        }
      ],
      "name": "DepositSuccessful",
      "type": "event"
    },
    {
      "anonymous": false,
      "inputs": [],
      "name": "WithdrawalSuccessful",
      "type": "event"
    },
    {
      "inputs": [],
      "name": "depositStakingReward",
      "outputs": [],
      "stateMutability": "payable",
      "type": "function"
    },
    {
      "inputs": [],
      "name": "getMyEstimatedStakedBalance",
      "outputs": [
        {
          "internalType": "uint256",
          "name": "_balance",
          "type": "uint256"
        },
        {
          "internalType": "uint256",
          "name": "_duration",
          "type": "uint256"
        }
      ],
      "stateMutability": "view",
      "type": "function"
    },
    {
      "inputs": [],
      "name": "getStakedBalance",
      "outputs": [
        {
          "internalType": "uint256",
          "name": "",
          "type": "uint256"
        }
      ],
      "stateMutability": "view",
      "type": "function"
    },
    {
      "inputs": [],
      "name": "owner",
      "outputs": [
        {
          "internalType": "address",
          "name": "",
          "type": "address"
        }
      ],
      "stateMutability": "view",
      "type": "function"
    },
    {
      "inputs": [
        {
          "internalType": "uint256",
          "name": "_duration",
          "type": "uint256"
        }
      ],
      "name": "stakeEther",
      "outputs": [],
      "stateMutability": "payable",
      "type": "function"
    },
    {
      "inputs": [],
      "name": "withdrawStakedEther",
      "outputs": [],
      "stateMutability": "nonpayable",
      "type": "function"
    }
  ],
  "bytecode": "0x608060405234801561001057600080fd5b50336000806101000a81548173ffffffffffffffffffffffffffffffffffffffff021916908373ffffffffffffffffffffffffffffffffffffffff1602179055506110e4806100606000396000f3fe6080604052600436106100555760003560e01c806321393b221461005a5780633113893d14610071578063769658671461009d5780638da5cb5b146100c8578063e4f90841146100f3578063fda86ca31461010f575b600080fd5b34801561006657600080fd5b5061006f610119565b005b34801561007d57600080fd5b506100866104bc565b604051610094929190610b06565b60405180910390f35b3480156100a957600080fd5b506100b26106aa565b6040516100bf9190610b2f565b60405180910390f35b3480156100d457600080fd5b506100dd610741565b6040516100ea9190610b8b565b60405180910390f35b61010d60048036038101906101089190610bd7565b610765565b005b61011761095f565b005b6000600160003373ffffffffffffffffffffffffffffffffffffffff1673ffffffffffffffffffffffffffffffffffffffff168152602001908152602001600020600101541161019e576040517f08c379a000000000000000000000000000000000000000000000000000000000815260040161019590610c61565b60405180910390fd5b600160003373ffffffffffffffffffffffffffffffffffffffff1673ffffffffffffffffffffffffffffffffffffffff16815260200190815260200160002060020154421015610223576040517f08c379a000000000000000000000000000000000000000000000000000000000815260040161021a90610ccd565b60405180910390fd5b600042600160003373ffffffffffffffffffffffffffffffffffffffff1673ffffffffffffffffffffffffffffffffffffffff168152602001908152602001600020600201546102739190610d1c565b90506000600590506000600160003373ffffffffffffffffffffffffffffffffffffffff1673ffffffffffffffffffffffffffffffffffffffff168152602001908152602001600020600101549050600062015180601e6102d49190610d50565b600c6102e09190610d50565b90506000816064866102f29190610d50565b6102fc9190610dc1565b905060006127108583866103109190610d50565b61031a9190610d50565b6103249190610dc1565b90506000600160003373ffffffffffffffffffffffffffffffffffffffff1673ffffffffffffffffffffffffffffffffffffffff16815260200190815260200160002060010154826103769190610df2565b90506000600160003373ffffffffffffffffffffffffffffffffffffffff1673ffffffffffffffffffffffffffffffffffffffff16815260200190815260200160002060000160009054906101000a900473ffffffffffffffffffffffffffffffffffffffff1673ffffffffffffffffffffffffffffffffffffffff168260405161040090610e57565b60006040518083038185875af1925050503d806000811461043d576040519150601f19603f3d011682016040523d82523d6000602084013e610442565b606091505b5050905080610486576040517f08c379a000000000000000000000000000000000000000000000000000000000815260040161047d90610eb8565b60405180910390fd5b7f59444540eff7338f1e4a85de195639ff19c0d15489ee623011a55496e13f0e0d60405160405180910390a15050505050505050565b6000806000600160003373ffffffffffffffffffffffffffffffffffffffff1673ffffffffffffffffffffffffffffffffffffffff1681526020019081526020016000206001015411610544576040517f08c379a000000000000000000000000000000000000000000000000000000000815260040161053b90610c61565b60405180910390fd5b600042600160003373ffffffffffffffffffffffffffffffffffffffff1673ffffffffffffffffffffffffffffffffffffffff168152602001908152602001600020600201546105949190610d1c565b90506000600590506000600160003373ffffffffffffffffffffffffffffffffffffffff1673ffffffffffffffffffffffffffffffffffffffff168152602001908152602001600020600101549050600062015180601e6105f59190610d50565b600c6106019190610d50565b90506000816064866106139190610d50565b61061d9190610dc1565b905060006127108583866106319190610d50565b61063b9190610d50565b6106459190610dc1565b90506000600160003373ffffffffffffffffffffffffffffffffffffffff1673ffffffffffffffffffffffffffffffffffffffff16815260200190815260200160002060010154826106979190610df2565b9050818198509850505050505050509091565b60008060009054906101000a900473ffffffffffffffffffffffffffffffffffffffff1673ffffffffffffffffffffffffffffffffffffffff163373ffffffffffffffffffffffffffffffffffffffff161461073b576040517f08c379a000000000000000000000000000000000000000000000000000000000815260040161073290610f4a565b60405180910390fd5b47905090565b60008054906101000a900473ffffffffffffffffffffffffffffffffffffffff1681565b60008054906101000a900473ffffffffffffffffffffffffffffffffffffffff1673ffffffffffffffffffffffffffffffffffffffff163373ffffffffffffffffffffffffffffffffffffffff16036107f3576040517f08c379a00000000000000000000000000000000000000000000000000000000081526004016107ea90610fb6565b60405180910390fd5b60003411610836576040517f08c379a000000000000000000000000000000000000000000000000000000000815260040161082d90611022565b60405180910390fd5b600062015180601e6108489190610d50565b826108539190610d50565b4261085e9190610df2565b905060405180606001604052803373ffffffffffffffffffffffffffffffffffffffff16815260200134815260200182815250600160003373ffffffffffffffffffffffffffffffffffffffff1673ffffffffffffffffffffffffffffffffffffffff16815260200190815260200160002060008201518160000160006101000a81548173ffffffffffffffffffffffffffffffffffffffff021916908373ffffffffffffffffffffffffffffffffffffffff1602179055506020820151816001015560408201518160020155905050347f9429de531c70bc23b11b333227b96a91e3076e8a11e3f4d62fbf68f859c9373060405160405180910390a25050565b60008054906101000a900473ffffffffffffffffffffffffffffffffffffffff1673ffffffffffffffffffffffffffffffffffffffff163373ffffffffffffffffffffffffffffffffffffffff16146109ed576040517f08c379a00000000000000000000000000000000000000000000000000000000081526004016109e490610f4a565b60405180910390fd5b60008054906101000a900473ffffffffffffffffffffffffffffffffffffffff1673ffffffffffffffffffffffffffffffffffffffff163373ffffffffffffffffffffffffffffffffffffffff1614610a7b576040517f08c379a0000000000000000000000000000000000000000000000000000000008152600401610a729061108e565b60405180910390fd5b60003411610abe576040517f08c379a0000000000000000000000000000000000000000000000000000000008152600401610ab590611022565b60405180910390fd5b347f9429de531c70bc23b11b333227b96a91e3076e8a11e3f4d62fbf68f859c9373060405160405180910390a2565b6000819050919050565b610b0081610aed565b82525050565b6000604082019050610b1b6000830185610af7565b610b286020830184610af7565b9392505050565b6000602082019050610b446000830184610af7565b92915050565b600073ffffffffffffffffffffffffffffffffffffffff82169050919050565b6000610b7582610b4a565b9050919050565b610b8581610b6a565b82525050565b6000602082019050610ba06000830184610b7c565b92915050565b600080fd5b610bb481610aed565b8114610bbf57600080fd5b50565b600081359050610bd181610bab565b92915050565b600060208284031215610bed57610bec610ba6565b5b6000610bfb84828501610bc2565b91505092915050565b600082825260208201905092915050565b7f596f7520646964206e6f74207374616b6520616e792065746865720000000000600082015250565b6000610c4b601b83610c04565b9150610c5682610c15565b602082019050919050565b60006020820190508181036000830152610c7a81610c3e565b9050919050565b7f5374616b696e672074696d6520686173206e6f7420656c617073656400000000600082015250565b6000610cb7601c83610c04565b9150610cc282610c81565b602082019050919050565b60006020820190508181036000830152610ce681610caa565b9050919050565b7f4e487b7100000000000000000000000000000000000000000000000000000000600052601160045260246000fd5b6000610d2782610aed565b9150610d3283610aed565b9250828203905081811115610d4a57610d49610ced565b5b92915050565b6000610d5b82610aed565b9150610d6683610aed565b9250828202610d7481610aed565b91508282048414831517610d8b57610d8a610ced565b5b5092915050565b7f4e487b7100000000000000000000000000000000000000000000000000000000600052601260045260246000fd5b6000610dcc82610aed565b9150610dd783610aed565b925082610de757610de6610d92565b5b828204905092915050565b6000610dfd82610aed565b9150610e0883610aed565b9250828201905080821115610e2057610e1f610ced565b5b92915050565b600081905092915050565b50565b6000610e41600083610e26565b9150610e4c82610e31565b600082019050919050565b6000610e6282610e34565b9150819050919050565b7f556e61626c6520746f2077697468647261770000000000000000000000000000600082015250565b6000610ea2601283610c04565b9150610ead82610e6c565b602082019050919050565b60006020820190508181036000830152610ed181610e95565b9050919050565b7f4f6e6c79206164647265737320302063616e2063616c6c20746869732066756e60008201527f6374696f6e000000000000000000000000000000000000000000000000000000602082015250565b6000610f34602583610c04565b9150610f3f82610ed8565b604082019050919050565b60006020820190508181036000830152610f6381610f27565b9050919050565b7f41646472657373205a65726f2063616e2774207374616b650000000000000000600082015250565b6000610fa0601883610c04565b9150610fab82610f6a565b602082019050919050565b60006020820190508181036000830152610fcf81610f93565b9050919050565b7f496e73756666696369656e742066756e64730000000000000000000000000000600082015250565b600061100c601283610c04565b915061101782610fd6565b602082019050919050565b6000602082019050818103600083015261103b81610fff565b9050919050565b7f6f6e6c792041646472657373205a65726f2063616e2774207374616b65000000600082015250565b6000611078601d83610c04565b915061108382611042565b602082019050919050565b600060208201905081810360008301526110a78161106b565b905091905056fea264697066735822122009e594cbf72e43bcc8c2d169123372fc0037e9b10206726bf99eb19aaa6bb55664736f6c63430008180033",
  "linkReferences": {},
  "deployedLinkReferences": {}
}